101 000101006 000010090202208200443D106101ACH Colombia           Banco occidente        1                 
522000000000000000000000000000000000    41788438  PPDTRASLADOS 20220820202208203001000010090000001        
6210000101388580037201       0000000000000000009000288840     Su Casa               V 1000010091090042    
799R10000010135556840        00001009No existe Prenotificacion                   000010091090042          
8220000002000000101300000000000000000000000000000000000041788438                           000010090000001
9000001000001000000020000001013000000000000000000000000000000000000                                       
9999999999999999999999999999999999999999999999999999999999999999999999999999999999999999999999999999999999
9999999999999999999999999999999999999999999999999999999999999999999999999999999999999999999999999999999999
9999999999999999999999999999999999999999999999999999999999999999999999999999999999999999999999999999999999
9999999999999999999999999999999999999999999999999999999999999999999999999999999999999999999999999999999999
