101 000101006 000010552202208191105A106101ACHCOLOMBIA            SERFINANZA             1                 
5200FOX CHANNELS COL0068026016          8301407750PPDTRASLADOS 20220819202208191381000010590000001        
62100001009030418665803      000000000056035100000000000000001JAIRO PE ALOZA CORZO  V 1000010590000001    
799R04000010090072952        00001059Numero Cuenta Invalido                      000010590000001          
621000010090401011234        000000004635947800000000000000002MEDIA PLANNING GROUP  V 1000010590000002    
799R04000010090072953        00001059Numero Cuenta Invalido                      000010590000002          
621000010090215049479        000000000476551400000000000000003NOMADAS LTDA          V 1000010590000003    
799R04000010090072954        00001059Numero Cuenta Invalido                      000010590000003          
820000000600000030270000000000000000000000000051685343008301407750                         000010590000001
9000001000001000000060000003027000000000000000000000000005168534300                                       
